:020000040800F2
:10000000C006002089010008291400088912000890
:1000100025140008450200083D14000800000000F7
:100020000000000000000000000000003114000883
:1000300049020008000000002D14000835140008D3
:10004000A3010008A3010008A3010008A301000800
:10005000A3010008A3010008A3010008A3010008F0
:10006000A3010008A3010008A3010008A3010008E0
:10007000A3010008A3010008A3010008A3010008D0
:10008000A3010008A3010008A3010008A3010008C0
:10009000A3010008A3010008A3010008A3010008B0
:1000A000A3010008A3010008A3010008A3010008A0
:1000B000A3010008A3010008A3010008A301000890
:1000C000A3010008A3010008A3010008A301000880
:1000D000A3010008A3010008A3010008A301000870
:1000E000A3010008A3010008A301000800F002F822
:1000F00000F03AF80AA090E8000C82448344AAF188
:100100000107DA4501D100F02FF8AFF2090EBAE885
:100110000F0013F0010F18BFFB1A43F0010318473B
:10012000E413000004140000103A24BF78C878C11A
:10013000FAD8520724BF30C830C144BF04680C60ED
:10014000704700000023002400250026103A28BF35
:1001500078C1FBD8520728BF30C148BF0B60704739
:100160001FB51FBD10B510BD00F031F81146FFF7E7
:10017000F7FF01F065F900F04FF803B4FFF7F2FF65
:1001800003BC00F057F800000948804709480047C1
:10019000FEE7FEE7FEE7FEE7FEE7FEE7FEE7FEE737
:1001A000FEE7FEE704480549054A064B7047000094
:1001B00039140008ED000008C0000020C00600202F
:1001C000C0020020C002002070477047704775468B
:1001D00000F02CF8AE4605006946534620F00700B3
:1001E000854618B020B5FFF7DDFFBDE820404FF091
:1001F00000064FF000074FF000084FF0000BAC4630
:10020000ACE8C009ACE8C009ACE8C009ACE8C0097A
:1002100021F007018D46704710B50446AFF300800A
:100220002046BDE81040FFF7A8BF00000048704717
:100230001000002001491820ABBEFEE72600020096
:1002400070470000FEE7000070470000EFF31080E9
:1002500072B600BFFEE7000070B582B2D30842F26A
:10026000C5056B431B0D4FF47A754EF2100103FB6D
:10027000150C40F2700ECEF20001B2F57A7FC2F298
:10028000000E5FD344F24020C0F20F0013F00304CD
:10029000A3F1010254D0DEF8005045434D60002523
:1002A0008D600D6845F001050D6000BF0D6805F01B
:1002B0000115012D0ED10D6805F00115012D09D193
:1002C0000D6805F00115012D04D10D6805F001152B
:1002D000012DEBD00D68012C25F001050D604FF0CC
:1002E00000058D6004D1013B032A2BD381E000BFC0
:1002F000DEF8006046434E608D600D6845F00105F4
:100300000D6000BF0D6805F00115012D0ED10D68BF
:1003100005F00115012D09D10D6805F00115012D1C
:1003200004D10D6805F00115012DEBD00D68022CEC
:1003300025F001050D604FF000058D6032D1023BC4
:10034000032A56D25FEA0C4008BF70BDDEF80000F9
:100350001FFA8CF250434FF47A72504348600020E9
:100360008860086840F00100086000BF086800F07D
:10037000011001280ED1086800F00110012809D1F0
:10038000086800F00110012804D1086800F001108D
:100390000128EBD0086820F0010008600020886088
:1003A00070BD00BFDEF8004044434C608D600C68B7
:1003B00044F001040C6000BF0C6804F00114012C2F
:1003C0000ED10C6804F00114012C09D10C6804F062
:1003D0000114012C04D10C6804F00114012CEBD0A1
:1003E0000C68033B24F001040C6000248C60032A99
:1003F000A8D3002207E000BF0C68043B24F00104EE
:100400000C608A609ED0DEF8004044434C608A60F5
:100410000C6844F001040C600C6804F00114012C19
:100420000ED10C6804F00114012C09D10C6804F001
:100430000114012C04D10C6804F00114012CEBD040
:100440000C6824F001040C608A60DEF8004044432C
:100450004C608A600C6844F001040C600C6804F085
:100460000114012C0ED10C6804F00114012C09D1E7
:100470000C6804F00114012C04D10C6804F0011480
:10048000012CEBD00C6824F001040C608A60DEF8CB
:10049000004044434C608A600C6844F001040C60E6
:1004A0000C6804F00114012C0ED10C6804F0011446
:1004B000012C09D10C6804F00114012C04D10C6842
:1004C00004F00114012CEBD00C6824F001040C6042
:1004D0008A60DEF8004044434C608A600C6844F057
:1004E00001040C600C6804F00114012C7FF484AF4B
:1004F0000C6804F00114012C7FF47EAF0C6804F04A
:100500000114012C7FF478AF0C6804F00114012C65
:10051000E8D071E72DE9F04F82B041F20042C4F219
:1005200001020E680423904208BF0323002E0093AB
:1005300000F0F68040F2004C4FF6FF7E0022C4F23D
:10054000010C0124C1F2100E4FF0000A4FF0000917
:1005500047E000BF012502F00C040F27A7402BEA5B
:10056000070705FA04F43C4343F82640D1F804B0E9
:1005700040F20C455FEACB23DCF8083054BF23EA95
:10058000080343EA0803C4F20105CCF808302B68DD
:100590005FEA8B2454BF23EA080343EA08032B6075
:1005A0005FEA8B34DCF8043054BF23EA080343EAE3
:1005B00008035FEACB34CCF80430DCF800304FF0AD
:1005C000010454BF23EA080343EA0803CCF80030CF
:1005D0000E680AF1010A36FA0AF302F1040200F089
:1005E0009F8004FA0AF816EA080FF1D04B687345A9
:1005F00012DC122B56D8DFE803F0350B4549555570
:1006000055555555555555555555554D510000BFE6
:10061000D1F80C9046E000BF4FF6FF75C1F22105FE
:10062000AB420FDC0025C1F21105AB421AD0002508
:10063000C1F21205AB4215D00025C1F22105AB4233
:1006400010D02FE00025C1F22205AB420AD00025D0
:10065000C1F23105AB4205D00025C1F23205AB42F3
:1006600020D100BF8B684BB1012B14BFC0F81480A0
:10067000C0F810804FF0080914E000BF4FF00409E3
:1006800010E000BFCB6803F108090BE04FF0000950
:1006900008E000BFCB6803F1040903E0CB6803F175
:1006A0000C0900BF13460546BAF1080F24BF203BD2
:1006B00004352E680F279F40BE4309FA03F33343E6
:1006C0002B60CB79DB067FF583AF41F21804C4F2CF
:1006D000020423684FEA9A0643F00103236023686B
:1006E00040F6000403F001030193019BACF57E7317
:1006F00053F826B0C4F20104A0420FD040F60044E3
:10070000C4F20104A0423FF425AF41F20004C4F258
:100710000104009DA04208BF02251CE700251AE73E
:1007200002B0BDE8F08F000040F2BC00C2F2000051
:100730000068704740F2000040F2BC01C2F20000C5
:10074000C2F2000100780A68104408607047000097
:1007500080B542F20000C4F20200016841F01001CD
:100760000160032000F072F80F2000F005F800F09F
:1007700027F8002080BD000070B540F20006C2F2EC
:10078000000640F208013278C2F200014FF47A7399
:100790000968B3FBF2F20446B1FBF2F1084600F03F
:1007A0001FFB0F2C4FF0010508D838B94FF0FF3070
:1007B00021460022002500F01DF87460284670BD17
:1007C00082B041F21800C4F20200016841F0010158
:1007D0000160016801F0010101910199416841F056
:1007E00080514160406800F080500090009802B055
:1007F0007047000010B54EF60C5CCEF2000CDCF831
:100800000030C3F3022E8EF00704042C28BF04240A
:10081000BEF103034FF0FF3E0EFA04F438BF00238D
:10082000A14399400EFA03F39A43114300F00F02DB
:10083000043A624409010C3200F16043B0F1FF3F19
:10084000C8BF03F56442117010BD00004EF60C5194
:10085000CEF200010A684FF6FF031A4060F30A2245
:1008600042F0806040F0FD70086070472DE9F04371
:1008700081B0002800F0858042F20008C4F202082E
:100880000446D8F800000D4600F0070088420CD25C
:10089000D8F8000020F007002843C8F80000D8F876
:1008A000000000F00700A8426BD1206841F2040963
:1008B0008107C4F2020917D5410705D5D9F8001000
:1008C00041F4E061C9F80010010705D5D9F800101E
:1008D00041F46051C9F80010D9F80010A26821F065
:1008E000F0011143C9F80010C00741D1D8F8000049
:1008F00000F00700A8420CD9D8F8000020F007004B
:100900002843C8F80000D8F8000000F00700A8420B
:1009100037D12068410707D5D9F80010E26821F4E3
:10092000E0611143C9F80010000708D5D9F80000AC
:10093000216920F4605040EAC100C9F80000D9F8EC
:10094000002002F00C00082841F20020C0F27A00DA
:1009500050D141F2F443C2F38341C0F60003595C25
:10096000D2033BD440F60010C0F23D00484341E0C2
:10097000606802280AD001282AD159F8041C89038A
:1009800008D4012001B0BDE8F08300BF59F8041C71
:100990008901F6D5D9F8001021F003010843C9F800
:1009A0000000FFF7C1FE064641F28837D9F8000083
:1009B000616800F00C00B0EB810F97D0FFF7B4FE38
:1009C000801BB842F2D9032001B0BDE8F08300BF1C
:1009D00059F8041C8907D4D5DCE700BFD9F80020FA
:1009E00041F2F243C2F34042C0F600039A5C48432E
:1009F000B0FBF2F0D9F8001041F2E242C1F303116A
:100A0000C0F60002515C40F2080220FA01F140F207
:100A10000400C2F200000068C2F200021160FFF799
:100A2000ABFE002001B0BDE8F08300002DE9F041ED
:100A300082B0002868D00446007841F20006C00762
:100A4000C4F2020625D0706800F00C0004281BD008
:100A5000706800F00C00082802D17068C00313D43D
:100A60006068002800F06881B0F5A02F00F07C815C
:100A7000B0F5803F00F07C81306820F48030306039
:100A8000306820F4802076E13068800301D560680A
:100A9000D0B32078800718D5706810F00C0F07D0FD
:100AA000706800F00C0008286ED17068C0036BD429
:100AB0003068800702D52069012825D13068616936
:100AC00020F0F80040EAC1003060207800071FD411
:100AD0002078400732D4E56995B1706800F00C00C9
:100AE000082840F08F80012D0ED07068216A00F434
:100AF00080328A4208D1616A00F47010884203D1C2
:100B0000002002B0BDE8F081012002B0BDE8F08114
:100B1000A069002862D00020C4F242200121C0F860
:100B20008014FFF701FE0546706A800700F18C8093
:100B3000FFF7FAFD401B0228F6D92AE1F06910F010
:100B4000805808D1F06940F08050F061F06900F001
:100B500080500090009847F20007C4F20007386800
:100B6000C00529D4386840F480703860FFF7DCFD98
:100B7000054600BF3868C0051ED4FFF7D5FD401BF1
:100B80006428F7D905E100BF2069002840F2000081
:100B9000C4F2422000F0828001210160FFF7C4FD11
:100BA000054600BF306880073FF588AFFFF7BCFD02
:100BB000401B0228F6D9ECE0E068002800F08080B5
:100BC000052800F09780012800F09880306A20F016
:100BD00001003062306A20F0040092E00020C4F28C
:100BE00042200021C0F88014FFF79EFD054600BF9B
:100BF000706A80077FF56CAFFFF796FD401B0228F7
:100C0000F6D9C6E00027C4F2422700203866FFF775
:100C10008BFD022D05460BD13068800140F1BE806E
:100C2000FFF782FD401B02284FF00300F4D968E76C
:100C3000306880017FF564AFFFF776FD401B022826
:100C40004FF00300F4D95CE740F20800C2F2000064
:100C5000006844F6D351C1F26201A0FB0101480AC9
:100C6000019000BF00BF0198411E002801913FF490
:100C70002FAF00BF0198411E002801913FF428AF1B
:100C800000BF0198411E002801913FF421AF00BF31
:100C90000198411E00280191E4D119E7002101606B
:100CA000FFF742FD054600BF306880077FF50DAFB6
:100CB000FFF73AFD401B02284FF00300F4D920E76C
:100CC000306A20F001003062306A20F004003062A7
:100CD000FFF72AFD054641F2883700BF306A8007DA
:100CE00020D5FFF721FD401BB8424FF00300F5D996
:100CF00007E700BF306A40F004003062306A40F01D
:100D000001003062FFF710FD054641F2883700BF51
:100D1000306A800706D4FFF707FD401BB842F7D9B9
:100D200037E000BFB8F1000F7FF4D5AEF06920F0D6
:100D30008050F061CFE600BF306820F48030306032
:100D4000306820F480203060FFF7EEFC054600BFDD
:100D5000306880037FF59DAEFFF7E6FC401B6428FA
:100D60004FF00300F4D9CCE6306840F480203060C6
:100D7000306840F480303060FFF7D6FC054600BF95
:100D8000306880033FF585AEFFF7CEFC401B64283A
:100D9000F6D9032002B0BDE8F08100BF206AB0F5AB
:100DA000803F05D17168A26821F400311143716060
:100DB0007168626A21F47411104308437060012065
:100DC0003866FFF7B1FC0446306880013FF598AE05
:100DD000FFF7AAFC001B02284FF00300F4D990E6AD
:100DE000411E0020B0EB116F1CBF012070474EF276
:100DF0001002CEF2000251604EF62351CEF20001F5
:100E0000F0230B70072190601160704710B590F8C7
:100E10003C20012A4FF0020233D080F83D200268C6
:100E2000D2F804E0D2F808C00C682EF07003234317
:100E300040F2FF74C4F20004A24253600ADCB2F133
:100E4000804F13D040F20043C4F200039A420DD009
:100E500011E000BF42F60043C4F201039A4205D0FC
:100E600040F60003C4F200039A4204D149682CF012
:100E70008003194391600121002280F83D1080F821
:100E80003C20104610BD00002DE9F04390F83C30A6
:100E9000012B04BF0220BDE8F0834FEAB202032A0F
:100EA0003CD8DFE802F003437FB900BF036842F695
:100EB00000461D6A1A6AC4F2010622F001021A6293
:100EC0001A465C6852F818CFB3428E68D1F800E039
:100ED00025F0020545EA06050CD1CE68D1E9057872
:100EE00024F4407425F00C0526F004063C433543F9
:100EF00044EA08042CF0730747EA0E075C609F6120
:100F00004F6809695F631D629F6947F008079F6129
:100F10009F6927F004079F61AEE000BF0121002216
:100F200080F83C200846BDE8F08300BF036842F625
:100F300000461D6A1A6AC4F2010622F010021A6203
:100F40001A46D3F804C052F8184FB3428E68D1F84D
:100F500000E025F0200545EA06150FD1CE68D1E95D
:100F600005986FF0400707EA06162CF4406725F055
:100F7000C00547EA8907354347EA880C24F4E6446C
:100F800044EA0E27C3F804C09F614F6809699F6354
:100F90001D629F6947F400679F619F6927F480671E
:100FA0009F6168E0036842F600461D6A1A6AC4F24F
:100FB000010622F480721A621A46D3F804C052F86D
:100FC0001CEFB3428E680C6825F4007545EA0625CF
:100FD0000FD1CE68D1E90598360240F2FF47BE43F3
:100FE0002CF4405725F4406547EA0917354347EA92
:100FF000081C2EF073072743C3F804C0DF614F6855
:101000000969DF631D62DF6947F00807DF61DF6997
:1010100027F00407DF612FE0036842F60047D3F8AA
:1010200020C01A6AC4F2010722F480521A621A46DA
:101030005C6852F81C5FD1F800E08E68BB4204D1B6
:101040004F6924F4804444EA87142CF4005747EA9B
:10105000063725F4E64646EA0E265C60DE614E68F9
:1010600009691E641F62DF6947F40067DF61DF6999
:1010700027F48067DF6109021368194311600021BA
:10108000002280F83C200846BDE8F083002804BF19
:101090000120704710B5044690F83D0028B90020A3
:1010A00084F83C00204600F067F8022084F83D00F8
:1010B000206840F2FF730268C4F2000342F6004C5D
:1010C0009842C4F2010C15DCB0F1804F1AD040F206
:1010D0000041C4F20001884214D0984218DCB0F1FB
:1010E000804F1DD040F20041C4F20001884217D069
:1010F0001AE000BF604505D040F60001C4F20001CF
:101100008842EAD1A16822F070020A439842E6DDE3
:10111000604505D040F60001C4F20001884203D1C9
:10112000216922F440720A43A36922F08001D4F8B5
:1011300004E0E268194360450160C262C0F828E03B
:1011400002D16169CCF8301001214161002084F89E
:10115000461084F83E1084F83F1084F8401084F85C
:10116000411084F8421084F8431084F8441084F845
:10117000451084F83D1010BD81B00068B0F1804F7B
:1011800002D001B0704700BF41F21C00C4F202005F
:10119000016841F001010160006800F00100009069
:1011A000009801B07047000041B1082910D004290F
:1011B00014BF00F1410200F13F020BE090F83E2025
:1011C000012A1CBF01207047022280F83E2013E054
:1011D00000F140021278012A1CBF01207047022250
:1011E000082907D0042914BF80F8412080F83F2047
:1011F00002E000BF80F84020006801F01F010122DA
:10120000036A8A4023EA02010162036A42F644410A
:10121000C4F201011A43A1F14403984202620FD0C3
:1012200040F2FF71C4F20001884213DCB0F1804F3C
:101230001CD040F20041C4F20001884216D01CE0EC
:101240000A6842F400420A6040F2FF71C4F20001F1
:101250008842EBDD42F60041C4F20101884205D02C
:1012600040F60001C4F20001884206D1816801F015
:101270000701062904BF00207047016841F0010101
:101280000160002070470000FEE7000083B041F2DB
:101290001800C4F20200016841F0200101600168F9
:1012A00001F0200102910299016841F004010160FE
:1012B000016801F0040101910199016841F0080100
:1012C0000160006800F008000090009803B07047CB
:1012D00070B590B040F274000021C2F200004FF0EF
:1012E000804240F2CF2340F2CF75CDE90811CDE91D
:1012F0000611CDE90411C0E90023C0E9021501611E
:101300008161FFF7C3FE002818BFFEF79FFF40F280
:101310007400C2F2000008A9FFF778FD002818BF8A
:10132000FEF794FF602001904FF4FA6002900020D5
:101330000390059040F27400C2F2000001A900225F
:10134000FFF7A2FD002818BFFEF780FF40F27400EF
:10135000C2F2000001A90422FFF796FD002818BF81
:10136000FEF774FF40F27400C2F2000001A90822E7
:10137000FFF78AFD002818BFFEF768FF40F27404EB
:10138000C2F2000401A920460C22FFF77DFD0028CF
:1013900018BFFEF75BFF20680021B0F1804F0E916F
:1013A00002D010B070BD00BF41F21800C4F20200BC
:1013B000016840F6000441F0040101600168C4F2D4
:1013C000010401F004010B910B9901680CAD41F08F
:1013D000080101600068022600F008000B900B98DD
:1013E00003200C90204629460D960F96FFF792F8A1
:1013F0004FF44060CDE90C0604F5806029460F9655
:10140000FFF788F80420C4F2010001684FF6FF429C
:10141000CFF6FF02114041F0E06141F4007101603C
:1014200010B070BDFEE70000FEE70000704700004E
:1014300070470000FFF77EB970470000FEE700002C
:1014400090B000F04DF840F27404C2F2000420465F
:101450000821FFF7A9FEFFF77BF900250120CDE960
:101460000B55CDE9095506900A904FF4E0104FF462
:10147000803102260F9006A8CDE90715CDE90D6150
:10148000FFF7D4FA20B1EFF3108072B6FEE700BF89
:101490000F20CDE901064FF48060CDE9040501A8D5
:1014A00002210395FFF7E2F920B1EFF3108072B645
:1014B000FEE700BFFFF7EAFEFFF70AFF40F23A75CA
:1014C00040F2D6662068C5634FF4FA60FEF7C4FEAA
:1014D0002068C6634FF4FA60FEF7BEFEF2E7000034
:1014E000FEE7000000000000000001020304060700
:1014F0000809010202030405060708090A0B0C0D7E
:101500000E0F101028150008000000201000000029
:10151000280100083815000810000020B00600005F
:10152000440100080000000001000000100000005D
:081530000024F400000000009B
:04000005080000ED02
:00000001FF
